:020000040800F2
:10000000500800208D0100088901000889010008BE
:10001000890100088901000889010008000000002A
:10002000000000000000000000000000890100083E
:100030008901000800000000890100082906000865
:100040008901000889010008890100088901000868
:100050008901000889010008890100088901000858
:100060008901000889010008890100088901000848
:100070008901000889010008890100088901000838
:100080008901000889010008890100088901000828
:100090008901000889010008890100088901000818
:1000A0008901000889010008890100088901000808
:1000B00089010008890100088901000889010008F8
:1000C00089010008890100088901000889010008E8
:1000D00089010008890100088901000889010008D8
:1000E00089010008890100088901000889010008C8
:1000F00089010008890100088901000889010008B8
:1001000089010008890100088901000889010008A7
:100110008901000889010008890100088901000897
:100120008901000889010008890100088901000887
:100130008901000889010008890100088901000877
:100140008901000889010008890100088901000867
:100150008901000889010008890100088901000857
:100160008901000889010008890100088901000847
:100170008901000889010008890100088901000837
:100180008901000889010008FEE700BF08B50F4893
:100190000F4B984207D2C2431A4422F003020432A2
:1001A0000C4900F047FF0C480C494FF00002884210
:1001B000B8BF40F8042BFADBDFF82400016841F4F3
:1001C00070010160BDE8084000F068B9000000203F
:1001D0003000002068110008300000204C00002092
:1001E00088ED00E02DE9F04F0120524DDFF84891F5
:1001F000DFF848A183B0014600F07AFB28460121D0
:10020000022200F0A3FC01222846082100F09EFCF7
:100210000024032602274FF48173284669464FF0D5
:10022000010800934FF0040B8DF806408DF807404D
:100230008DF804708DF8056000F024FC28466946AE
:100240008DF806408DF807408DF80560CDF800B0B8
:100250008DF8048000F016FC5846414600F048FB3B
:100260004FF400736946484600938DF806408DF8B8
:1002700004808DF807408DF8056000F003FC3846D7
:10028000414600F035FB694650464FF40063009349
:100290008DF806408DF804808DF807408DF80560D4
:1002A00000F0F0FB28466946802300938DF8064055
:1002B0008DF804608DF807408DF8056000F0E2FBD2
:1002C000504669464FF4404300938DF806408DF840
:1002D00004408DF807708DF8056000F0D3FBC02353
:1002E0004846694600938DF806408DF804408DF825
:1002F00007708DF8056000F0C5FB28460B21092228
:1003000000F024FC284609220C2100F01FFC4FF4C9
:10031000C053284669468DF806408DF804708DF864
:1003200007708DF80570009300F0ACFB03B0BDE8DA
:10033000F08F00BF000002400008024000040240AD
:10034000F0B5082085B0012100F0DEFA174F184DF6
:100350000120014600F0E4FA00240323384601A9F5
:100360004AF20B46ADF80430ADF80C40ADF806404B
:100370008DF80E40029600F057FD3846012100F03E
:100380009FFD072301A92846ADF80430ADF80C40C5
:10039000ADF8064002968DF80E4000F045FD284667
:1003A000012100F08DFD05B0F0BD00BF000C004044
:1003B000000001402DE9F0474FF480709AB0334FB0
:1003C000DFF8D0A0DFF8D090314E012100F0A8FA7C
:1003D00001214FF4800000F08BFA384600F04AFC0F
:1003E000002401254FF4006C4FF4005E4FF480723E
:1003F0004FF4003338460BA94FF48068CDF848C05D
:10040000CDF84CE0149215930B940E94109416941E
:1004100018941994CDF830A0CDF834900F95179515
:10042000CDF8448000F0BEFC2946384600F0F2FCCE
:1004300001A8019402940394049400F0A5FA3046B4
:1004400005A905948DF818508DF819500794089453
:1004500009948DF8285000F06FFA07210B462A46C0
:10046000304600F0AFFA3046294600F001FB304636
:10047000294600F0F3FA3046294600F099FA304652
:1004800000F0E6FA1AB0BDE8F08700BF1064024041
:10049000002001404C200140480000202DE9F0419F
:1004A00086B000F067FB0125FFF79CFE0024FFF7F4
:1004B00047FF45F205264FF07008022701A927489B
:1004C000ADF806500396ADF80480ADF81440ADF8D1
:1004D000107000F045FD2148082100F091FD01A9B0
:1004E0001F48ADF806500396ADF80480ADF81440EF
:1004F000ADF8107000F0F2FC1948082100F078FD0A
:1005000029461748174D00F085FDFFF753FF1648A1
:100510004FF4006100F016FB1448042100F014FBB6
:1005200012484FF4007100F00FFB0F484FF40061C8
:1005300000F008FB0E4B0F491B680F4AA1FB031389
:100540009B09013BF0260721536001A885F8236031
:100550009460116000F080F9FEE700BF000C0040DD
:100560000000014000ED00E00004024000000240F5
:100570002C000020D34D621010E000E038B54FF49D
:1005800080412248224D00F0D7FA4FF40041286004
:100590001E4800F0D1FA1F4A686013889BB2B3F579
:1005A0002F6F26D81C4CE3681D2B1DDC1E23E36037
:1005B0002A6817493AB930B9012364220B604B60AD
:1005C000E260322309E003EB8303144ADB0082FB81
:1005D0000312DB17C3EB62130A3311482361802136
:1005E00000F0AAFA606038BD642BC4BF6423E360E6
:1005F000DEE712880B4B084C92B2A2F61C4283FB3A
:100600000213D217C2EB6303E360CDE7000402409C
:100610000000002048000020300000201F85EB5122
:100620000008024067666666F0B5864C636987B06D
:1006300001336361FFF7A2FF23680A2B72D8DFE85A
:1006400013F094009F00BC005A005A0063000B0096
:100650000B0078007300CE00A3687B4D013332227B
:10066000B3F5967FA360AA6002DD00232360A36038
:100670002369612B45DC022BD8BF40F2EA4300F32B
:10068000D780022201A90124704803937027002615
:10069000ADF81020ADF80470ADF81460ADF8064068
:1006A00000F01CFC6948082100F0A2FC21466748C4
:1006B00000F0B0FCAB68612B00F39580022BD8BF33
:1006C00040F2EA4300F3AB80012201A97026002525
:1006D00002245F480393ADF80620ADF80460ADF83E
:1006E0001450ADF8104000F03BFC5948082100F0D0
:1006F00087FC07B0F0BD002323602369524D612BB6
:10070000B9DD49F61F73BCE7A36862684D49013340
:10071000A360002A78D0B3F57A7FC1BF08220023F6
:100720000A608B60484DA3E7A368474D0133A3607F
:100730009EE7A368444D0133B3F5C87F2A68A360E0
:10074000B4BF45233223AB601AB9012203232260D0
:10075000A3606B681BB9022203232260A360636855
:10076000012B85D10523236082E7374D2B680BB918
:10077000012323606B68002BF1D102232360EEE795
:10078000A368314D33482F4E013354224FF400619A
:10079000A360AA6000F0D8F9A368022B26DC6F687A
:1007A000002F7FF465AF32232A48AB604FF400611D
:1007B00000F0C8F9B76037605AE7A368224D214AB4
:1007C00001331021012BA360A9601FDDB3F5C87FA1
:1007D0007FF74EAF072100231160936048E70023A5
:1007E000194D236044E749F61F736DE7B3F5C87FE1
:1007F0007FF73EAF0623174833604FF4006100F0E7
:10080000A1F90023B36033E70F4D2EE72B68002BCF
:100810007FF42EAF322193601360A96028E74AF27B
:100820000C4202FB03F3642293FBF2F3013B4BE720
:100830004AF20C4202FB03F3642293FBF2F3013B06
:100840001FE700BF30000020000000200000014032
:10085000000C00400004024010B4214CA36803F0D7
:100860000C03042B1BD0082B1CD01E4B03601C4A0E
:100870001D499468C4F303140C5DE340436094681D
:10088000C4F382240C5D23FA04F4846092685DF85A
:10089000044BC2F342328A5CD340C3607047134BAF
:1008A0000360E4E76368616813F4800F636818BF4E
:1008B0000E4C01F03F020CBF0A49B4FBF2F1C3F346
:1008C000881308BFB1FBF2F101FB03F2044B5B6834
:1008D000C3F3014301335B00B2FBF3F30360C6E7EC
:1008E000003802400024F4000C00002040787D0114
:1008F000044A136B19B923EA0000106370471843C8
:100900001063704700380240044A136C19B923EA97
:1009100000001064704718431064704700380240AC
:10092000044A536C19B923EA000050647047184315
:100930005064704700380240F0B544680A6891F886
:1009400004C0D1F80CE00E698D684F790D4B24F08E
:10095000407424F48074224342EA0C22426084688A
:100960004EEA06022A432340134343EA47038360C7
:100970000A7DC36A013AD2B223F4700343EA0253F8
:10098000C362F0BDFDF7FFC070B490E84400064DAF
:100990008468C168054B6868324322430A430340B8
:1009A00013436B6070BC704700230140E030FCFFD4
:1009B000836819B923F001038360704743F0010392
:1009C00083607047092970B41CD9A1F10A0404EBB3
:1009D0004404C5680726A640A34025EA060423432D
:1009E000062AC3601AD90C2A25D90D3AC46A02EB2B
:1009F00082021F23934024EA030391401943C162FA
:100A000070BC704701EB410605690724B440B34050
:100A100025EA04042343062A0361E4D8013A446B1F
:100A200002EB82021F23934024EA030391401943FF
:100A3000416370BC7047073A046B02EB82021F23CC
:100A4000934024EA030391401943016370BC70474B
:100A5000836843F080438360704700BF836819B99F
:100A600023F480738360704743F48073836070471E
:100A7000836819B923F400738360704743F40073EB
:100A80008360704700222DE9F0431346D1F800E05F
:100A900001274FF0030C04E00133102B02F1020296
:100AA00028D007FA03F404EA0E05A542F4D1D0F8E1
:100AB00000800E790CFA02F4E44304EA0808C0F856
:100AC0000080D0F8008006FA02F9013E49EA0808E1
:100AD000012EC0F800800FD9C568CE792C40C460C3
:100AE000C56806FA02F401332C43102BC46002F1EE
:100AF0000202D6D1BDE8F083D0F8089091F80580C5
:100B00008E7904EA0909C0F80890D0F8089008FA2C
:100B100002F848EA0908C0F80880D0F8048028EAFA
:100B200005054560D0F8048006FA03F5ADB245EA44
:100B300008054560D0E700BF0369194214BF0120D2
:100B4000002070470183704741837047CB0800EB5A
:100B5000830001F0070110B48900046A0F238B4061
:100B600024EA03030362036A5DF8044B8A401343DB
:100B70000362704739493A4BD1F88820394842F42A
:100B80007002C1F888201A68002142F001021A6040
:100B900099601A6822F0847222F480321A605860D8
:100BA0001A6882B022F480221A60D9600091019103
:100BB0001A6842F480321A601A4603E0009BB3F5CB
:100BC000A06F09D0136803F400330193009B013335
:100BD0000093019B002BF1D0214B1B6813F40033D1
:100BE00018BF01230193019B012B05D01B4B4FF034
:100BF00000629A6002B07047194B1B491A6C1B487F
:100C000042F080521A640A6842F480420A609A688C
:100C10009A609A6842F400429A609A6842F4A0523C
:100C20009A6058601A6842F080721A601A46116819
:100C30000B4B8901FBD50E4A40F2056111609A68A1
:100C400022F003029A609A6842F002029A601A4601
:100C5000936803F00C03082BFAD1C7E700ED00E01E
:100C60000038024010300024007000400854400753
:100C7000003C024002683749002310B422F0010210
:100C8000212488420260036043608360C360036183
:100C900044614DD0304B984235D0304B984239D0DA
:100CA0002F4B98423DD02F4B984247D02E4B984225
:100CB00048D02E4B98421DD02D4B98421ED02D4B24
:100CC000984243D02C4B98421DD02C4B984221D0B7
:100CD0002B4B984225D02B4B98422FD02A4B984231
:100CE00030D02A4B984205D0294B984206D05DF867
:100CF000044B7047274A43F8942CF8E74FF03D52D5
:100D000043F8AC2CF3E74FF4746243F8202C5DF801
:100D1000044B70474FF4741243F8382C5DF8044BC1
:100D200070474FF0746243F8502C5DF8044B7047E5
:100D3000194B5DF8044B3D229A607047174A43F8FF
:100D4000642CD4E7164A43F87C2CD0E73D2243F8C4
:100D5000082CCCE71060024028600240406002404E
:100D6000586002407060024088600240A06002400B
:100D7000B8600240106402402864024040640240AF
:100D8000586402407064024088640240A0640240DB
:100D9000B864024000003D20006002403D00002099
:100DA000400F00202DE9F04182B08B6A0193CB689F
:100DB0004F698E69CD690C6A4A6AD0F800C0DFF8C5
:100DC00050E098460B6848EA030848EA07073E43A4
:100DD00035432C43019B0E6B0D69224313434A6B31
:100DE0004C6813438A6B0CEA0E0E134343EA0E035E
:100DF00003604269CB6A896822F0070233431343D8
:100E0000436145608460C16002B0BDE8F08100BF0D
:100E10003F801CF0036819B923F001030360704799
:100E200043F0010303607047224A038890429BB25B
:100E300012D002F5806290420ED0B0F1804F0BD0FC
:100E4000A2F58032904207D002F58062904203D032
:100E500002F58062904203D14A8823F07003134365
:100E6000154A90421ED002F5806290421AD00A893B
:100E700070B423F440730F4C4E680D889BB213433B
:100E8000A0420380C662058506D00C4B984203D071
:100E90000123838270BC70478B7A0386012383828F
:100EA00070BC704703800B884A68C26203850123C7
:100EB00083827047000001400010004000040140A0
:100EC000038829B923F001031B041B0C038070471E
:100ED0009BB243F001030380704700BFF0B5048C60
:100EE000B1F802C08B890F881B4E24F00104240442
:100EF000240C0484058CB0F804E0048B25F0020572
:100F000024F073022D042D0C4CEA030312042B432E
:100F1000120CB0429BB21FFA8EF442EA070208D0CC
:100F20000E4DA84205D08968848002834163038402
:100F3000F0BDCE89B1F812E00D8A8F8823F0080346
:100F400024F4407433434EEA050523F004032C4394
:100F50003B43A4B2E7E700BF0000014000040140AA
:100F6000F0B5058C0C88B1F80CC0B1F802E01E4E4B
:100F700025F010052D042D0C0584028C8788058B27
:100F800022F020031B0425F4E6421B0C120443EA62
:100F90000C13120C43EA0E1342EA0422B0429BB235
:100FA000BDB294B208D0114A904205D08A688580BB
:100FB000048382630384F0BD23F08002CB89B1F8FF
:100FC00010E08F884E8A92B242EA031225F44065FF
:100FD0004FF6BF73134045EA8E0543EA071345EA0F
:100FE00086059BB2ADB2E1E700000140000401407C
:100FF000038B23F008031B041B0C19430183704768
:10100000038B23F400631B041B0C43EA012189B208
:1010100001837047B0F8443021B9C3F30E03A0F840
:10102000443070476FEA43436FEA53439BB2A0F8E2
:1010300044307047844641EA000313F003036DD146
:10104000403A41D351F8043B40F8043B51F8043B8B
:1010500040F8043B51F8043B40F8043B51F8043B92
:1010600040F8043B51F8043B40F8043B51F8043B82
:1010700040F8043B51F8043B40F8043B51F8043B72
:1010800040F8043B51F8043B40F8043B51F8043B62
:1010900040F8043B51F8043B40F8043B51F8043B52
:1010A00040F8043B51F8043B40F8043B51F8043B42
:1010B00040F8043B51F8043B40F8043B51F8043B32
:1010C00040F8043B403ABDD2303211D351F8043BD2
:1010D00040F8043B51F8043B40F8043B51F8043B12
:1010E00040F8043B51F8043B40F8043B103AEDD281
:1010F0000C3205D351F8043B40F8043B043AF9D2D2
:10110000043208D0D2071CBF11F8013B00F8013BA4
:1011100001D30B8803806046704700BF082A13D3B1
:101120008B078DD010F003038AD0C3F10403D21AC9
:10113000DB071CBF11F8013B00F8013B80D331F8FD
:10114000023B20F8023B7BE7043AD9D3013A11F87D
:10115000013B00F8013BF9D20B7803704B784370E8
:081160008B7883706046704734
:101168000100000001000000320000000000000043
:101178000102030401020304060708090000000035
:10118800000000000102030406070809007A030AA8
:0400000508000000EF
:00000001FF
